{"abi":[{"type":"function","name":"collectERC20","inputs":[{"name":"token","type":"address","internalType":"contract IERC20"},{"name":"senders","type":"address[]","internalType":"address[]"},{"name":"recipient","type":"address","internalType":"address"}],"outputs":[],"stateMutability":"nonpayable"},{"type":"function","name":"collectERC20Percent","inputs":[{"name":"token","type":"address","internalType":"contract IERC20"},{"name":"senders","type":"address[]","internalType":"address[]"},{"name":"recipient","type":"address","internalType":"address"},{"name":"percentage","type":"uint256","internalType":"uint256"}],"outputs":[],"stateMutability":"nonpayable"},{"type":"function","name":"collectETH","inputs":[{"name":"senders","type":"address[]","internalType":"address[]"},{"name":"recipient","type":"address","internalType":"address"}],"outputs":[],"stateMutability":"nonpayable"},{"type":"function","name":"disperseERC20","inputs":[{"name":"token","type":"address","internalType":"contract IERC20"},{"name":"recipients","type":"address[]","internalType":"address[]"},{"name":"values","type":"uint256[]","internalType":"uint256[]"}],"outputs":[],"stateMutability":"nonpayable"},{"type":"function","name":"disperseERC20Percent","inputs":[{"name":"token","type":"address","internalType":"contract IERC20"},{"name":"recipients","type":"address[]","internalType":"address[]"},{"name":"percentages","type":"uint256[]","internalType":"uint256[]"},{"name":"totalAmount","type":"uint256","internalType":"uint256"}],"outputs":[],"stateMutability":"nonpayable"},{"type":"function","name":"disperseETH","inputs":[{"name":"recipients","type":"address[]","internalType":"address[]"},{"name":"values","type":"uint256[]","internalType":"uint256[]"}],"outputs":[],"stateMutability":"payable"}],"bytecode":{"object":"0x6080604052348015600f57600080fd5b50610d198061001f6000396000f3fe6080604052600436106100555760003560e01c806319f984981461005a57806394a97f121461007c578063976f6bf61461009c578063b85cc042146100bc578063bda44852146100dc578063eae702dd146100ef575b600080fd5b34801561006657600080fd5b5061007a6100753660046108c1565b61010f565b005b34801561008857600080fd5b5061007a610097366004610983565b610274565b3480156100a857600080fd5b5061007a6100b73660046109fe565b610391565b3480156100c857600080fd5b5061007a6100d7366004610a81565b610539565b61007a6100ea366004610aeb565b6106b1565b3480156100fb57600080fd5b5061007a61010a366004610b54565b610757565b60005b825181101561026e576000846001600160a01b03166370a0823185848151811061013e5761013e610ba6565b60200260200101516040518263ffffffff1660e01b815260040161017191906001600160a01b0391909116815260200190565b602060405180830381865afa15801561018e573d6000803e3d6000fd5b505050506040513d601f19601f820116820180604052508101906101b29190610bbc565b9050846001600160a01b03166323b872dd8584815181106101d5576101d5610ba6565b602002602001015185846040518463ffffffff1660e01b81526004016101fd93929190610bd5565b6020604051808303816000875af115801561021c573d6000803e3d6000fd5b505050506040513d601f19601f820116820180604052508101906102409190610bf9565b6102655760405162461bcd60e51b815260040161025c90610c22565b60405180910390fd5b50600101610112565b50505050565b80518251146102955760405162461bcd60e51b815260040161025c90610c4b565b60005b825181101561026e57836001600160a01b03166323b872dd338584815181106102c3576102c3610ba6565b60200260200101518585815181106102dd576102dd610ba6565b60200260200101516040518463ffffffff1660e01b815260040161030393929190610bd5565b6020604051808303816000875af1158015610322573d6000803e3d6000fd5b505050506040513d601f19601f820116820180604052508101906103469190610bf9565b6103895760405162461bcd60e51b8152602060048201526014602482015273151c985b9cd9995c88199c9bdb4819985a5b195960621b604482015260640161025c565b600101610298565b81518351146103b25760405162461bcd60e51b815260040161025c90610c4b565b6000805b83518110156103ee578381815181106103d1576103d1610ba6565b6020026020010151826103e49190610c91565b91506001016103b6565b508060641461043f5760405162461bcd60e51b815260206004820152601c60248201527f546f74616c2070657263656e74616765206d7573742062652031303000000000604482015260640161025c565b60005b8451811015610531576000606485838151811061046157610461610ba6565b6020026020010151856104749190610caa565b61047e9190610cc1565b9050866001600160a01b03166323b872dd338885815181106104a2576104a2610ba6565b6020026020010151846040518463ffffffff1660e01b81526004016104c993929190610bd5565b6020604051808303816000875af11580156104e8573d6000803e3d6000fd5b505050506040513d601f19601f8201168201806040525081019061050c9190610bf9565b6105285760405162461bcd60e51b815260040161025c90610c22565b50600101610442565b505050505050565b60005b83518110156106aa576000856001600160a01b03166370a0823186848151811061056857610568610ba6565b60200260200101516040518263ffffffff1660e01b815260040161059b91906001600160a01b0391909116815260200190565b602060405180830381865afa1580156105b8573d6000803e3d6000fd5b505050506040513d601f19601f820116820180604052508101906105dc9190610bbc565b9050600060646105ec8584610caa565b6105f69190610cc1565b9050866001600160a01b03166323b872dd87858151811061061957610619610ba6565b602002602001015187846040518463ffffffff1660e01b815260040161064193929190610bd5565b6020604051808303816000875af1158015610660573d6000803e3d6000fd5b505050506040513d601f19601f820116820180604052508101906106849190610bf9565b6106a05760405162461bcd60e51b815260040161025c90610c22565b505060010161053c565b5050505050565b80518251146106d25760405162461bcd60e51b815260040161025c90610c4b565b60005b8251811015610752578281815181106106f0576106f0610ba6565b60200260200101516001600160a01b03166108fc83838151811061071657610716610ba6565b60200260200101519081150290604051600060405180830381858888f19350505050158015610749573d6000803e3d6000fd5b506001016106d5565b505050565b60005b825181101561075257816001600160a01b03166108fc84838151811061078257610782610ba6565b60200260200101516001600160a01b0316319081150290604051600060405180830381858888f193505050501580156107bf573d6000803e3d6000fd5b5060010161075a565b6001600160a01b03811681146107dd57600080fd5b50565b634e487b7160e01b600052604160045260246000fd5b604051601f8201601f1916810167ffffffffffffffff8111828210171561081f5761081f6107e0565b604052919050565b600067ffffffffffffffff821115610841576108416107e0565b5060051b60200190565b600082601f83011261085c57600080fd5b813561086f61086a82610827565b6107f6565b8082825260208201915060208360051b86010192508583111561089157600080fd5b602085015b838110156108b75780356108a9816107c8565b835260209283019201610896565b5095945050505050565b6000806000606084860312156108d657600080fd5b83356108e1816107c8565b9250602084013567ffffffffffffffff8111156108fd57600080fd5b6109098682870161084b565b925050604084013561091a816107c8565b809150509250925092565b600082601f83011261093657600080fd5b813561094461086a82610827565b8082825260208201915060208360051b86010192508583111561096657600080fd5b602085015b838110156108b757803583526020928301920161096b565b60008060006060848603121561099857600080fd5b83356109a3816107c8565b9250602084013567ffffffffffffffff8111156109bf57600080fd5b6109cb8682870161084b565b925050604084013567ffffffffffffffff8111156109e857600080fd5b6109f486828701610925565b9150509250925092565b60008060008060808587031215610a1457600080fd5b8435610a1f816107c8565b9350602085013567ffffffffffffffff811115610a3b57600080fd5b610a478782880161084b565b935050604085013567ffffffffffffffff811115610a6457600080fd5b610a7087828801610925565b949793965093946060013593505050565b60008060008060808587031215610a9757600080fd5b8435610aa2816107c8565b9350602085013567ffffffffffffffff811115610abe57600080fd5b610aca8782880161084b565b9350506040850135610adb816107c8565b9396929550929360600135925050565b60008060408385031215610afe57600080fd5b823567ffffffffffffffff811115610b1557600080fd5b610b218582860161084b565b925050602083013567ffffffffffffffff811115610b3e57600080fd5b610b4a85828601610925565b9150509250929050565b60008060408385031215610b6757600080fd5b823567ffffffffffffffff811115610b7e57600080fd5b610b8a8582860161084b565b9250506020830135610b9b816107c8565b809150509250929050565b634e487b7160e01b600052603260045260246000fd5b600060208284031215610bce57600080fd5b5051919050565b6001600160a01b039384168152919092166020820152604081019190915260600190565b600060208284031215610c0b57600080fd5b81518015158114610c1b57600080fd5b9392505050565b6020808252600f908201526e151c985b9cd9995c8819985a5b1959608a1b604082015260600190565b6020808252601690820152754d69736d6174636820696e707574206c656e6774687360501b604082015260600190565b634e487b7160e01b600052601160045260246000fd5b80820180821115610ca457610ca4610c7b565b92915050565b8082028115828204841417610ca457610ca4610c7b565b600082610cde57634e487b7160e01b600052601260045260246000fd5b50049056fea264697066735822122035e43d95bab0fd89c22b842e94a8f57b956e987ffcfa2549b134672dba19745464736f6c634300081a0033","linkReferences":{}},"methodIdentifiers":{"collectERC20(address,address[],address)":"19f98498","collectERC20Percent(address,address[],address,uint256)":"b85cc042","collectETH(address[],address)":"eae702dd","disperseERC20(address,address[],uint256[])":"94a97f12","disperseERC20Percent(address,address[],uint256[],uint256)":"976f6bf6","disperseETH(address[],uint256[])":"bda44852"},"id":23}